{
  "contractName": "GeometryCollection",
  "abi": [
    {
      "inputs": [],
      "payable": false,
      "stateMutability": "nonpayable",
      "type": "constructor"
    },
    {
      "anonymous": false,
      "inputs": [
        {
          "indexed": false,
          "internalType": "uint256",
          "name": "id",
          "type": "uint256"
        },
        {
          "indexed": false,
          "internalType": "string",
          "name": "geohash",
          "type": "string"
        },
        {
          "indexed": false,
          "internalType": "address",
          "name": "owner",
          "type": "address"
        }
      ],
      "name": "point",
      "type": "event"
    },
    {
      "constant": true,
      "inputs": [
        {
          "internalType": "uint256",
          "name": "",
          "type": "uint256"
        }
      ],
      "name": "Points",
      "outputs": [
        {
          "internalType": "contract Point",
          "name": "",
          "type": "address"
        }
      ],
      "payable": false,
      "stateMutability": "view",
      "type": "function"
    },
    {
      "constant": true,
      "inputs": [],
      "name": "deployer",
      "outputs": [
        {
          "internalType": "address",
          "name": "",
          "type": "address"
        }
      ],
      "payable": false,
      "stateMutability": "view",
      "type": "function"
    },
    {
      "constant": true,
      "inputs": [],
      "name": "nbrPoint",
      "outputs": [
        {
          "internalType": "uint256",
          "name": "",
          "type": "uint256"
        }
      ],
      "payable": false,
      "stateMutability": "view",
      "type": "function"
    },
    {
      "constant": false,
      "inputs": [
        {
          "internalType": "string",
          "name": "_geohash",
          "type": "string"
        }
      ],
      "name": "setPoint",
      "outputs": [],
      "payable": false,
      "stateMutability": "nonpayable",
      "type": "function"
    }
  ],
  "bytecode": "0x6080604052600060015534801561001557600080fd5b50336000806101000a81548173ffffffffffffffffffffffffffffffffffffffff021916908373ffffffffffffffffffffffffffffffffffffffff160217905550610e08806100656000396000f3fe608060405234801561001057600080fd5b506004361061004c5760003560e01c80633cba0d5414610051578063b12ac4661461010c578063d5f394881461017a578063ef4b27db146101c4575b600080fd5b61010a6004803603602081101561006757600080fd5b810190808035906020019064010000000081111561008457600080fd5b82018360208201111561009657600080fd5b803590602001918460018302840111640100000000831117156100b857600080fd5b91908080601f016020809104026020016040519081016040528093929190818152602001838380828437600081840152601f19601f8201169050808301925050505050505091929192905050506101e2565b005b6101386004803603602081101561012257600080fd5b8101908080359060200190929190505050610648565b604051808273ffffffffffffffffffffffffffffffffffffffff1673ffffffffffffffffffffffffffffffffffffffff16815260200191505060405180910390f35b610182610684565b604051808273ffffffffffffffffffffffffffffffffffffffff1673ffffffffffffffffffffffffffffffffffffffff16815260200191505060405180910390f35b6101cc6106a9565b6040518082815260200191505060405180910390f35b600180540160018190555060006001548233604051610200906106af565b80848152602001806020018373ffffffffffffffffffffffffffffffffffffffff1673ffffffffffffffffffffffffffffffffffffffff168152602001828103825284818151815260200191508051906020019080838360005b8381101561027557808201518184015260208101905061025a565b50505050905090810190601f1680156102a25780820380516001836020036101000a031916815260200191505b50945050505050604051809103906000f0801580156102c5573d6000803e3d6000fd5b50905060028190806001815401808255809150509060018203906000526020600020016000909192909190916101000a81548173ffffffffffffffffffffffffffffffffffffffff021916908373ffffffffffffffffffffffffffffffffffffffff160217905550507f9b4bda69be91e2028151bcfc1c6ed2a109d990c75786ee783d23fbee258547d78173ffffffffffffffffffffffffffffffffffffffff166339a090c96040518163ffffffff1660e01b815260040160206040518083038186803b15801561039557600080fd5b505afa1580156103a9573d6000803e3d6000fd5b505050506040513d60208110156103bf57600080fd5b81019080805190602001909291905050508273ffffffffffffffffffffffffffffffffffffffff16639be771cc6040518163ffffffff1660e01b815260040160006040518083038186803b15801561041657600080fd5b505afa15801561042a573d6000803e3d6000fd5b505050506040513d6000823e3d601f19601f82011682018060405250602081101561045457600080fd5b810190808051604051939291908464010000000082111561047457600080fd5b8382019150602082018581111561048a57600080fd5b82518660018202830111640100000000821117156104a757600080fd5b8083526020830192505050908051906020019080838360005b838110156104db5780820151818401526020810190506104c0565b50505050905090810190601f1680156105085780820380516001836020036101000a031916815260200191505b506040525050508373ffffffffffffffffffffffffffffffffffffffff1663b4a99a4e6040518163ffffffff1660e01b815260040160206040518083038186803b15801561055557600080fd5b505afa158015610569573d6000803e3d6000fd5b505050506040513d602081101561057f57600080fd5b810190808051906020019092919050505060405180848152602001806020018373ffffffffffffffffffffffffffffffffffffffff1673ffffffffffffffffffffffffffffffffffffffff168152602001828103825284818151815260200191508051906020019080838360005b838110156106085780820151818401526020810190506105ed565b50505050905090810190601f1680156106355780820380516001836020036101000a031916815260200191505b5094505050505060405180910390a15050565b6002818154811061065557fe5b906000526020600020016000915054906101000a900473ffffffffffffffffffffffffffffffffffffffff1681565b6000809054906101000a900473ffffffffffffffffffffffffffffffffffffffff1681565b60015481565b610717806106bd8339019056fe608060405234801561001057600080fd5b506040516107173803806107178339818101604052606081101561003357600080fd5b81019080805190602001909291908051604051939291908464010000000082111561005d57600080fd5b8382019150602082018581111561007357600080fd5b825186600182028301116401000000008211171561009057600080fd5b8083526020830192505050908051906020019080838360005b838110156100c45780820151818401526020810190506100a9565b50505050905090810190601f1680156100f15780820380516001836020036101000a031916815260200191505b506040526020018051906020019092919050505082600081905550816001908051906020019061012292919061016c565b5080600260006101000a81548173ffffffffffffffffffffffffffffffffffffffff021916908373ffffffffffffffffffffffffffffffffffffffff160217905550505050610211565b828054600181600116156101000203166002900490600052602060002090601f016020900481019282601f106101ad57805160ff19168380011785556101db565b828001600101855582156101db579182015b828111156101da5782518255916020019190600101906101bf565b5b5090506101e891906101ec565b5090565b61020e91905b8082111561020a5760008160009055506001016101f2565b5090565b90565b6104f7806102206000396000f3fe608060405234801561001057600080fd5b506004361061007d5760003560e01c80639be771cc1161005b5780639be771cc1461016b578063b4a99a4e146101ee578063d72d917e14610238578063e99aafa41461025a5761007d565b806339a090c9146100825780634959aecf146100a0578063959473ae146100e8575b600080fd5b61008a61038e565b6040518082815260200191505060405180910390f35b6100ce600480360360208110156100b657600080fd5b81019080803515159060200190929190505050610394565b604051808215151515815260200191505060405180910390f35b6100f061039e565b6040518080602001828103825283818151815260200191508051906020019080838360005b83811015610130578082015181840152602081019050610115565b50505050905090810190601f16801561015d5780820380516001836020036101000a031916815260200191505b509250505060405180910390f35b6101736103e3565b6040518080602001828103825283818151815260200191508051906020019080838360005b838110156101b3578082015181840152602081019050610198565b50505050905090810190601f1680156101e05780820380516001836020036101000a031916815260200191505b509250505060405180910390f35b6101f6610481565b604051808273ffffffffffffffffffffffffffffffffffffffff1673ffffffffffffffffffffffffffffffffffffffff16815260200191505060405180910390f35b6102406104a7565b604051808215151515815260200191505060405180910390f35b6103136004803603602081101561027057600080fd5b810190808035906020019064010000000081111561028d57600080fd5b82018360208201111561029f57600080fd5b803590602001918460018302840111640100000000831117156102c157600080fd5b91908080601f016020809104026020016040519081016040528093929190818152602001838380828437600081840152601f19601f8201169050808301925050505050505091929192905050506104b8565b6040518080602001828103825283818151815260200191508051906020019080838360005b83811015610353578082015181840152602081019050610338565b50505050905090810190601f1680156103805780820380516001836020036101000a031916815260200191505b509250505060405180910390f35b60005481565b6000819050919050565b60606103de6040518060400160405280600581526020017f506f696e740000000000000000000000000000000000000000000000000000008152506104b8565b905090565b60018054600181600116156101000203166002900480601f0160208091040260200160405190810160405280929190818152602001828054600181600116156101000203166002900480156104795780601f1061044e57610100808354040283529160200191610479565b820191906000526020600020905b81548152906001019060200180831161045c57829003601f168201915b505050505081565b600260009054906101000a900473ffffffffffffffffffffffffffffffffffffffff1681565b60006104b36000610394565b905090565b606081905091905056fea265627a7a7231582080c33d02edb196a41f7bafaa5b105ce359707748e907a5ffd93b8f8be90a9f5864736f6c634300050c0032a265627a7a72315820df055a57a2cce6599a7948647511b410b100a0dadaa7dc9b96d22feff0d3f9ce64736f6c634300050c0032",
  "source": "pragma solidity >=0.4.0 <0.7.2;\r\n\r\nimport \"./Point.sol\";\r\n\r\n\r\ncontract GeometryCollection {\r\n    address public deployer;\r\n    uint256 public nbrPoint = 0;\r\n    Point[] public Points;\r\n    event point(uint256 id, string geohash, address owner);\r\n\r\n    constructor() public {\r\n        deployer = msg.sender;\r\n    }\r\n\r\n    function setPoint(string memory _geohash) public {\r\n        nbrPoint = nbrPoint + 1;\r\n        Point currentPoint = new Point(nbrPoint, _geohash, msg.sender);\r\n        Points.push(currentPoint);\r\n        emit point(\r\n            currentPoint.Id(),\r\n            currentPoint.Geohash(),\r\n            currentPoint.Owner()\r\n        );\r\n    }\r\n}\r\n",
  "sourcePath": "D:/akram/Learning/Dapp/Geohash/Truffle/contracts/GeometryCollection.sol",
  "compiler": {
    "name": "solc",
    "version": "0.5.12+commit.7709ece9.Emscripten.clang"
  },
  "schemaVersion": "3.0.20",
  "updatedAt": "2020-03-30T16:47:05.615Z",
  "networkType": "ethereum",
  "devdoc": {
    "methods": {}
  },
  "userdoc": {
    "methods": {}
  }
}