{
  "contractName": "Geometry",
  "abi": [
    {
      "constant": true,
      "inputs": [],
      "name": "Geohash",
      "outputs": [
        {
          "internalType": "string",
          "name": "",
          "type": "string"
        }
      ],
      "payable": false,
      "stateMutability": "view",
      "type": "function"
    },
    {
      "constant": true,
      "inputs": [],
      "name": "Id",
      "outputs": [
        {
          "internalType": "uint256",
          "name": "",
          "type": "uint256"
        }
      ],
      "payable": false,
      "stateMutability": "view",
      "type": "function"
    },
    {
      "constant": true,
      "inputs": [],
      "name": "Owner",
      "outputs": [
        {
          "internalType": "address",
          "name": "",
          "type": "address"
        }
      ],
      "payable": false,
      "stateMutability": "view",
      "type": "function"
    },
    {
      "constant": true,
      "inputs": [
        {
          "internalType": "string",
          "name": "_type",
          "type": "string"
        }
      ],
      "name": "geometryType",
      "outputs": [
        {
          "internalType": "string",
          "name": "",
          "type": "string"
        }
      ],
      "payable": false,
      "stateMutability": "pure",
      "type": "function"
    },
    {
      "constant": true,
      "inputs": [
        {
          "internalType": "bool",
          "name": "_is",
          "type": "bool"
        }
      ],
      "name": "isMeasurable",
      "outputs": [
        {
          "internalType": "bool",
          "name": "",
          "type": "bool"
        }
      ],
      "payable": false,
      "stateMutability": "pure",
      "type": "function"
    }
  ],
  "bytecode": "0x608060405234801561001057600080fd5b506103d6806100206000396000f3fe608060405234801561001057600080fd5b50600436106100575760003560e01c806339a090c91461005c5780634959aecf1461007a5780639be771cc146100c2578063b4a99a4e14610145578063e99aafa41461018f575b600080fd5b6100646102c3565b6040518082815260200191505060405180910390f35b6100a86004803603602081101561009057600080fd5b810190808035151590602001909291905050506102c9565b604051808215151515815260200191505060405180910390f35b6100ca6102d3565b6040518080602001828103825283818151815260200191508051906020019080838360005b8381101561010a5780820151818401526020810190506100ef565b50505050905090810190601f1680156101375780820380516001836020036101000a031916815260200191505b509250505060405180910390f35b61014d610371565b604051808273ffffffffffffffffffffffffffffffffffffffff1673ffffffffffffffffffffffffffffffffffffffff16815260200191505060405180910390f35b610248600480360360208110156101a557600080fd5b81019080803590602001906401000000008111156101c257600080fd5b8201836020820111156101d457600080fd5b803590602001918460018302840111640100000000831117156101f657600080fd5b91908080601f016020809104026020016040519081016040528093929190818152602001838380828437600081840152601f19601f820116905080830192505050505050509192919290505050610397565b6040518080602001828103825283818151815260200191508051906020019080838360005b8381101561028857808201518184015260208101905061026d565b50505050905090810190601f1680156102b55780820380516001836020036101000a031916815260200191505b509250505060405180910390f35b60005481565b6000819050919050565b60018054600181600116156101000203166002900480601f0160208091040260200160405190810160405280929190818152602001828054600181600116156101000203166002900480156103695780601f1061033e57610100808354040283529160200191610369565b820191906000526020600020905b81548152906001019060200180831161034c57829003601f168201915b505050505081565b600260009054906101000a900473ffffffffffffffffffffffffffffffffffffffff1681565b606081905091905056fea265627a7a72315820c38164631580e400cf6a97466b1fbb85fd056f83d1bd931cd0a2660b8326f77464736f6c634300050c0032",
  "source": "pragma solidity >=0.4.0 <0.7.2;\r\n\r\n\r\ncontract Geometry {\r\n    uint256 public Id;\r\n    string public Geohash;\r\n    address public Owner;\r\n\r\n    function geometryType(string memory _type)\r\n        public\r\n        pure\r\n        returns (string memory)\r\n    {\r\n        return _type;\r\n    }\r\n\r\n    function isMeasurable(bool _is) public pure returns (bool) {\r\n        return _is;\r\n    }\r\n}\r\n",
  "sourcePath": "D:\\akram\\Learning\\Dapp\\Geohash\\Truffle\\contracts\\Geometry.sol",
  "compiler": {
    "name": "solc",
    "version": "0.5.12+commit.7709ece9.Emscripten.clang"
  },
  "schemaVersion": "3.0.20",
  "updatedAt": "2020-03-30T16:47:01.138Z",
  "devdoc": {
    "methods": {}
  },
  "userdoc": {
    "methods": {}
  }
}